:2000000012C0FECFFDCFFCCFFBCFFACFF9CFF8CFF7CFF6CFF5CFF4CFF3CFF2CF5AC2F0CF18
:20002000EFCFEECFEDCFF894EE27ECBBF1E0FBBFEBBFE5BFF8E1F1BDE1BD8DE0A2E0BB2772
:20004000ED938A95E9F780E094E0A0E6ED930197E9F7EFE5EDBFE4E0EEBFC0E6D1E00CC3B8
:20006000AD98AB9A02C0AD98AB98E881E2BBAD9AE1E0F0E0BBD4AD9821960895E0E8B9D451
:20008000E6E4B9D4E2E5B7D4E5E4B5D4E1E5B3D4EAE3B1D4E6E8ADD4E881E03021F4ADD468
:2000A000AED4EBE61EC0A881A13041F4A6D4A7D4E0E3A1D4EBE69FD4EEE318C0A881A230CB
:2000C00051F49BD49CD4E0E396D4E0E394D4EBE692D4EEE30EC0A881A33069F48ED48FD4B0
:2000E000EDE6EA93BDDFEEE386D4E0E2EA93B8DFE0E2EA93B5DFEEE87CD4E981E03021F08F
:20010000EEE379D4EEE303C0E0E275D4E0E2EA93A7DF22960895E4EC6CD473D411F4E0E2EA
:2001200002C0EE81E05DEA939BDFAE81A03019F4AD81A03009F002C0E0E202C0ED81E05D66
:20014000EA938EDFAE81A03031F4AD81A03019F4AC81A03009F002C0E0E202C0EC81E05DA0
:20016000EA937EDFEB8150D4EEE245D4EA814CD4E9814AD4E88148D4EDEC3BD4EDE63BD4CA
:20018000E8E439D4EAE737D427960895E8E331D4E1E02FD4E6E02DD4ECE02BD408952497D2
:2001A000E0E0E883E983EA83EB831A9310E0E8BBC298C098ED81FE816F81788527D410E016
:2001C000103288F428D4E070F0706070707893D511F0C19A01C0C198C29A1DD420D516D4F3
:2001E000C2981F5FEDCFC198C09AC09818812996089516D4D4DFEC81FD816E817F8113D40D
:20020000E885F9856A857B850ED40FD40CD412D40AD4EC89FD896E897F8905D4689608952D
:20022000609708D4E030ADE7FA07A0E06A07A0E07A0748F004D4AE38ECE0BE07E1E08E0777
:20024000E0E09E0708F012C0FFD303D4E6E006D409D4E3E003D410D47F936F93FF93EF93A3
:2002600018D4AF91BF918F919F91E3C0E3D3EE38ACE0FA07A1E06A07A0E07A0748F0DFD3C9
:20028000AC31E9E1BE07E2E08E07E0E09E0708F015C0ECE3F0E86CED70E0DBD3E5E0DED3F5
:2002A000E1D3E2E0DBD3E8D37F936F93FF93EF93F0D3AF91BF918F919F91BBC0BBD3EC316E
:2002C000A9E1FA07A2E06A07A0E07A0748F0B7D3A833E2E3BE07E4E08E07E0E09E0708F0C2
:2002E00014C0ECE3F0E86CEC70E0B3D3E4E0B6D3D4D395D4DCD37F936F93FF93EF93C9D385
:20030000AF91BF918F919F9194C094D3E833A2E3FA07A4E06A07A0E07A0748F090D3A03739
:20032000E4E6BE07E8E08E07E0E09E0708F013C0ECE3F0E86CEB70E08CD3E3E08FD392D36A
:200340009BD37F936F93FF93EF93A3D3AF91BF918F919F916EC06ED3E037A4E6FA07A8E018
:200360006A07A0E07A0748F06AD3A03EE8ECBE07E0E18E07E0E09E0708F014C0ECE3F0E8F1
:200380006CEA70E066D3E2E069D387D343D48FD37F936F93FF93EF937CD3AF91BF918F9186
:2003A0009F9147C047D3E03EA8ECFA07A0E16A07A0E07A0748F043D3A03CE1E9BE07E1E2CA
:2003C0008E07E0E09E0708F019C0ECE3F0E86CE970E0E887F9876A877B872CD320D46AD3F4
:2003E00041D3E2E00BD463D37F936F93FF93EF9350D3AF91BF918F919F911BC01BD3E03C02
:20040000A1E9FA07A1E26A07A0E07A0740F1ECE3F0E86CE870E01DD325D3E3E0EFD347D359
:200420007F936F93FF93EF9334D3AF91BF918F919F91CED3EC87FD876E877F87F6D256D428
:20044000E9EAF1EE60E078E051D4E2E4FEE460E070E033D3E88DF98D6A8D7B8D35D3A99AAA
:200460006496089521974BD436D3E0E4F2E46FE070E0FFD31E2F2FD3E0EAF6E861E070E072
:200480002FD30E2F28D3E0E1F7E260E070E028D33E2F21D3E8EEF3E060E070E021D32E2F12
:2004A0001AD3E4E6F0E060E070E01AD35E2F20D317D34E2F1DD302D4EE831A930A933A9303
:2004C0002A935A934A93EC85EA9325DE1FD42B960895EA93FA93EFB7EA93E0912400F09110
:2004E0002500F3703F01E7E4E7B9369AE0E5F0E005D320F4E9E6F0E004D308F002C0E9E07F
:200500009FC0E4EAF0E0FAD220F4E0EBF0E0F9D208F002C0E8E094C0E6EEF0E0EFD220F449
:20052000E2EFF0E0EED208F002C0E7E089C0EEE1F1E0E4D220F4EAE2F1E0E3D208F002C01A
:20054000EBE07EC0EFE4F1E0D9D220F4EBE5F1E0D8D208F002C0EDE073C0EAE7F1E0CED2E8
:2005600020F4E6E8F1E0CDD208F002C0E6E068C0EFE9F1E0C3D220F4EBEAF1E0C2D208F0FD
:2005800002C0E5E05DC0EFEDF1E0B8D220F4EBEEF1E0B7D208F002C0E4E052C0E2E1F2E014
:2005A000ADD220F4EEE1F2E0ACD208F002C0EAE047C0ECE3F2E0A2D220F4E8E4F2E0A1D2C4
:2005C00008F002C0ECE03CC0E0E6F2E097D220F4ECE6F2E096D208F002C0E3E031C0EEE735
:2005E000F2E08CD220F4EAE8F2E08BD208F002C0E2E026C0E8E9F2E081D220F4E5EAF2E0A9
:2006000080D208F002C0E1E01BC0ECEBF2E076D220F4E9ECF2E075D208F002C0552411C03B
:20062000EAEDF2E06BD220F4E6EEF2E06AD208F002C0EEE005C0E8EEF3E060D210F4EFE0E3
:200640005E2EE991EFBFF991E9911895A798AF98E0E0E6B9E1E4E7B9E0E8E8B9EFEEE6B906
:200660000895EFEFE1BBA19AA39AA49AA59AE7E0E7BBE0E0E8BB0895289746D2E0E0ED83FE
:20068000EE83EF8310E000E030E020E050E040E0E8DFDCDF7BDD789486E695E00197F1F700
:2006A0000A9335D2EBDC33D232D231D230D22FD22ED22DD230DD2ED2C7D106D2AD81AA3F2D
:2006C00020F4ED81EF5FED8307C0E0E0ED83A99B02C0A99801C0A99A113019F4EAE05E160C
:2006E00008F081C026D210E0E0916501E0936601E0916401E0936501E0916301E0936401CC
:20070000E0916201E0936301E0916101E0936201E0916001E093610150926001E0916601C3
:200720000BD2A0E4B2E48FE090E083D27F936F93FF93EF93E0916501FFD1A0EAB6E881E036
:2007400090E077D2AF91BF918F919F9141D27F936F93FF93EF93E0916401EED1A0E1B7E216
:2007600080E090E066D2AF91BF918F919F9130D27F936F93FF93EF93E0916301DDD1A8EE4E
:20078000B3E080E090E055D2AF91BF918F919F911FD27F936F93FF93EF93E0916201CCD165
:2007A000A4E6B0E080E090E044D2AF91BF918F919F910ED27F936F93FF93EF93E09161017E
:2007C000BBD1AAE0B0E080E090E033D2AF91BF918F919F9102D2E0916001AED1F9D17CD281
:2007E0001FD140DE8FC0113019F4ECE0E51509F005C09FD110E000950A9381C0113019F4A9
:20080000EDE0E51509F01AC094D110E0E0E0E0936601E0936501E0936401E0936301E09354
:200820006201E0936101E09360015BD2F9D01ADE00E030E020E06BD1E0E062C0113019F462
:20084000EEE0E51509F011C074D110E078D118F4EE81EF5F01C0E0E0EE830A93EF81EA9343
:200860000DDC00E030E020E04DC0EFE0E51539F460D111E049D140E0E0E0EF8343C01130CA
:2008800029F4EAE0E51511F45DD109F005C031E010E03AD13A9333C0113029F4EBE0E51597
:2008A00011F450D109F005C021E010E02DD12A9326C0113029F4EAE0E51511F443D108F08F
:2008C0000AC0EC81EF5FEC834F5F303009F030E000E04A9314C0113029F4EBE0E51511F454
:2008E00031D108F00FC0EC81EF5FEC83EF81EF5FEF83203009F020E000E0EF81EA93EF814F
:20090000EA93BCDB003041F0103011F489D088DC30E020E050E060C03030B9F072D029F498
:2009200014D13197604070400BC011D111F412D107C016D111F417D103C001D111F419D106
:20094000CBD16ED01CD11DD147C02030A1F059D011F41AD10BC0FBD011F41CD107C000D1C1
:2009600011F41ED103C0EBD011F420D1B5D158D006D107D131C04130B9F443D029F4E5D0BE
:200980003197604070400BC0E2D011F4E3D007C0E7D011F4E8D003C0D2D011F4EAD09CD13E
:2009A0003FD0EDD0EED018C0AF81A130A1F429D011F4EAD00BC0CBD011F4ECD007C0D0D0F9
:2009C00011F4EED003C0BBD011F4F0D085D128D0D6D0D7D001C051E0503011F0103009F0FA
:2009E00003C098D031D070D069CEFFCFFA93EA93E3C0EA9338CBEA9333CBECE3FCCFE1E380
:200A0000FACFEE81E0300895E05DF5CFE983FA836B837C830895E981FA816B817C81089512
:200A200051D164D1089562D1BACBEC85FD856E857F850895E889F9896A897B890895A889CB
:200A4000B9898A899B890895ECE3F0E86CEE70E00895E887F9876A877B87F1CFC3D0DF017D
:200A6000CB010895E8EAF1E660E070E002D1EC83FD836E837F83E3CFE5E3FCE060E070E039
:200A80001DD12AD1AC81BD818E819F81EFE0AAD008951DD1E3E0A6D00895E8EAF1E660E040
:200AA00070E0E7D0EC83FD836E837F83C3CFDF01CB01E2CFDF01CB01089518D1E3EBF4E08A
:200AC00060E070E013D1089511D1E5E0F0E068E570E00CD18ECBAF81B88589859A85089584
:200AE000C8D0E8DFEAE0F0E060E070E0E7D00895F2DFEAE0F0E060E070E00895E615F7058A
:200B000008956E167F060895E0E0EC830895E0E0EA930895E0E0F0E060E070E0E7D0E1E153
:200B2000F0E860E078E0E2D0E2E6FEE460E070E0C4CFE2E0F0E05ACFF0E076D00895AE8129
:200B4000A3300895AC81A4360895BCD00895AE81A1300895FADFEA50F0406040704008958B
:200B6000AE81A2300895F1DFE456F040604070400895EBDFE85EF34060407040089572DC32
:200B80004FCF4EDB50E00895E0DFEF5FFF4F6F4F7F4F0895DADFE65FFF4F6F4F7F4F089548
:200BA000D4DFEC59FF4F6F4F7F4F0895CEDFE851FC4F6F4F7F4F0895E991F991309639F079
:200BC0008DEC9AE00197F1F7A8953197C9F70895EA0FFB1F681F791F0895AE0FBF1F861F31
:200BE000971F0895EE230E2EFD01BC0131F0EE0FFF1F661F771F0A94D1F70895EE230E2EF3
:200C0000FD01BC0131F076956795F795E7950A94D1F7089576956795F795E7950895EE0F3D
:200C2000FF1F661F771F08956F2F660F660B762F08957A9F702D6B9F700DF89F700DE99F3F
:200C4000700D6A9F602D710DFB9F600D711DE89F600D711D8827FA9FF02D610D781FEB9FF8
:200C6000F00D611D781FEA9FE02DF10D681F781F08953F934F935F9300241124442755272D
:200C800030E2AA0FBB1F881F991F001C111C441F551F0E1A1F0A460B570B28F40E0E1F1EB7
:200CA000461F571F01C0A1603A9559F7FD01BC01D001CA015F914F913F910895DADFFD012D
:200CC000BC010895E881F9816A817B810895A881B9818A819B810895E883F9836A837B835A
:200CE0000895E883E983EA83EB8308957A936A93FA93EA93089530976040704008955A93B6
:1A0D00004A933A932A931A930A9308955D814C813B812A81198108810895B9
:00000001FF
